{
  "contractName": "StarNotary",
  "abi": [
    {
      "constant": true,
      "inputs": [
        {
          "name": "",
          "type": "uint256"
        }
      ],
      "name": "starsForSale",
      "outputs": [
        {
          "name": "",
          "type": "uint256"
        }
      ],
      "payable": false,
      "stateMutability": "view",
      "type": "function"
    },
    {
      "constant": true,
      "inputs": [
        {
          "name": "_tokenId",
          "type": "uint256"
        }
      ],
      "name": "getApproved",
      "outputs": [
        {
          "name": "",
          "type": "address"
        }
      ],
      "payable": false,
      "stateMutability": "view",
      "type": "function"
    },
    {
      "constant": false,
      "inputs": [
        {
          "name": "_approved",
          "type": "address"
        },
        {
          "name": "_tokenId",
          "type": "uint256"
        }
      ],
      "name": "approve",
      "outputs": [],
      "payable": true,
      "stateMutability": "payable",
      "type": "function"
    },
    {
      "constant": false,
      "inputs": [
        {
          "name": "_from",
          "type": "address"
        },
        {
          "name": "_to",
          "type": "address"
        },
        {
          "name": "_tokenId",
          "type": "uint256"
        }
      ],
      "name": "transferFrom",
      "outputs": [],
      "payable": true,
      "stateMutability": "payable",
      "type": "function"
    },
    {
      "constant": false,
      "inputs": [
        {
          "name": "_from",
          "type": "address"
        },
        {
          "name": "_to",
          "type": "address"
        },
        {
          "name": "_tokenId",
          "type": "uint256"
        }
      ],
      "name": "safeTransferFrom",
      "outputs": [],
      "payable": true,
      "stateMutability": "payable",
      "type": "function"
    },
    {
      "constant": true,
      "inputs": [
        {
          "name": "_tokenId",
          "type": "uint256"
        }
      ],
      "name": "ownerOf",
      "outputs": [
        {
          "name": "",
          "type": "address"
        }
      ],
      "payable": false,
      "stateMutability": "view",
      "type": "function"
    },
    {
      "constant": true,
      "inputs": [
        {
          "name": "_owner",
          "type": "address"
        }
      ],
      "name": "balanceOf",
      "outputs": [
        {
          "name": "",
          "type": "uint256"
        }
      ],
      "payable": false,
      "stateMutability": "view",
      "type": "function"
    },
    {
      "constant": false,
      "inputs": [
        {
          "name": "_tokenId",
          "type": "uint256"
        }
      ],
      "name": "mint",
      "outputs": [],
      "payable": false,
      "stateMutability": "nonpayable",
      "type": "function"
    },
    {
      "constant": false,
      "inputs": [
        {
          "name": "_operator",
          "type": "address"
        },
        {
          "name": "_approved",
          "type": "bool"
        }
      ],
      "name": "setApprovalForAll",
      "outputs": [],
      "payable": false,
      "stateMutability": "nonpayable",
      "type": "function"
    },
    {
      "constant": false,
      "inputs": [
        {
          "name": "_from",
          "type": "address"
        },
        {
          "name": "_to",
          "type": "address"
        },
        {
          "name": "_tokenId",
          "type": "uint256"
        },
        {
          "name": "data",
          "type": "bytes"
        }
      ],
      "name": "safeTransferFrom",
      "outputs": [],
      "payable": true,
      "stateMutability": "payable",
      "type": "function"
    },
    {
      "constant": true,
      "inputs": [
        {
          "name": "",
          "type": "uint256"
        }
      ],
      "name": "currentStarsForSale",
      "outputs": [
        {
          "name": "",
          "type": "uint256"
        }
      ],
      "payable": false,
      "stateMutability": "view",
      "type": "function"
    },
    {
      "constant": true,
      "inputs": [
        {
          "name": "_owner",
          "type": "address"
        },
        {
          "name": "_operator",
          "type": "address"
        }
      ],
      "name": "isApprovedForAll",
      "outputs": [
        {
          "name": "",
          "type": "bool"
        }
      ],
      "payable": false,
      "stateMutability": "view",
      "type": "function"
    },
    {
      "constant": true,
      "inputs": [],
      "name": "totalStarsForSale",
      "outputs": [
        {
          "name": "",
          "type": "uint256"
        }
      ],
      "payable": false,
      "stateMutability": "view",
      "type": "function"
    },
    {
      "anonymous": false,
      "inputs": [
        {
          "indexed": false,
          "name": "amount1",
          "type": "uint256"
        },
        {
          "indexed": false,
          "name": "amount",
          "type": "uint256"
        }
      ],
      "name": "LogCoinsSent",
      "type": "event"
    },
    {
      "anonymous": false,
      "inputs": [
        {
          "indexed": true,
          "name": "_from",
          "type": "address"
        },
        {
          "indexed": true,
          "name": "_to",
          "type": "address"
        },
        {
          "indexed": true,
          "name": "_tokenId",
          "type": "uint256"
        }
      ],
      "name": "Transfer",
      "type": "event"
    },
    {
      "anonymous": false,
      "inputs": [
        {
          "indexed": true,
          "name": "_owner",
          "type": "address"
        },
        {
          "indexed": true,
          "name": "_approved",
          "type": "address"
        },
        {
          "indexed": true,
          "name": "_tokenId",
          "type": "uint256"
        }
      ],
      "name": "Approval",
      "type": "event"
    },
    {
      "anonymous": false,
      "inputs": [
        {
          "indexed": true,
          "name": "_owner",
          "type": "address"
        },
        {
          "indexed": true,
          "name": "_operator",
          "type": "address"
        },
        {
          "indexed": false,
          "name": "_approved",
          "type": "bool"
        }
      ],
      "name": "ApprovalForAll",
      "type": "event"
    },
    {
      "constant": false,
      "inputs": [
        {
          "name": "_name",
          "type": "string"
        },
        {
          "name": "_starStory",
          "type": "string"
        },
        {
          "name": "_ra",
          "type": "string"
        },
        {
          "name": "_dec",
          "type": "string"
        },
        {
          "name": "_mag",
          "type": "string"
        },
        {
          "name": "_tokenId",
          "type": "uint256"
        }
      ],
      "name": "createStar",
      "outputs": [],
      "payable": false,
      "stateMutability": "nonpayable",
      "type": "function"
    },
    {
      "constant": false,
      "inputs": [
        {
          "name": "_tokenId",
          "type": "uint256"
        },
        {
          "name": "_price",
          "type": "uint256"
        }
      ],
      "name": "putStarUpForSale",
      "outputs": [],
      "payable": false,
      "stateMutability": "nonpayable",
      "type": "function"
    },
    {
      "constant": false,
      "inputs": [
        {
          "name": "_tokenId",
          "type": "uint256"
        }
      ],
      "name": "buyStar",
      "outputs": [],
      "payable": true,
      "stateMutability": "payable",
      "type": "function"
    },
    {
      "constant": true,
      "inputs": [],
      "name": "allStarsForSale",
      "outputs": [
        {
          "name": "",
          "type": "uint256[]"
        }
      ],
      "payable": false,
      "stateMutability": "view",
      "type": "function"
    },
    {
      "constant": true,
      "inputs": [],
      "name": "testFunc",
      "outputs": [
        {
          "name": "",
          "type": "string"
        }
      ],
      "payable": false,
      "stateMutability": "view",
      "type": "function"
    },
    {
      "constant": true,
      "inputs": [
        {
          "name": "v",
          "type": "uint256"
        }
      ],
      "name": "testFunc1",
      "outputs": [
        {
          "name": "",
          "type": "string"
        }
      ],
      "payable": false,
      "stateMutability": "view",
      "type": "function"
    },
    {
      "constant": true,
      "inputs": [
        {
          "name": "_tokenId",
          "type": "uint256"
        }
      ],
      "name": "tokenIdToStarInfo",
      "outputs": [
        {
          "name": "",
          "type": "string"
        },
        {
          "name": "",
          "type": "string"
        },
        {
          "name": "",
          "type": "string"
        },
        {
          "name": "",
          "type": "string"
        },
        {
          "name": "",
          "type": "string"
        }
      ],
      "payable": false,
      "stateMutability": "view",
      "type": "function"
    }
  ],
  "bytecode": "0x608060405234801561001057600080fd5b5061257f806100206000396000f300608060405260043610610112576000357c0100000000000000000000000000000000000000000000000000000000900463ffffffff168063037a417c146101175780630564b130146101a7578063081812fc146101e8578063095ea7b3146102555780631967fd981461029557806323b872dd146104eb5780632f1c34ef1461054b578063316a43611461056b57806342842e0e146105a25780635affc43c146106025780636352211e1461066e57806370a08231146106db578063963a807814610732578063a0712d68146107d8578063a22cb46514610805578063b250ced014610854578063b88d4fde146109df578063d069d3e014610a57578063e985e9c514610a98578063ebb77ccd14610b13575b600080fd5b34801561012357600080fd5b5061012c610b3e565b6040518080602001828103825283818151815260200191508051906020019080838360005b8381101561016c578082015181840152602081019050610151565b50505050905090810190601f1680156101995780820380516001836020036101000a031916815260200191505b509250505060405180910390f35b3480156101b357600080fd5b506101d260048036038101908080359060200190929190505050610cd6565b6040518082815260200191505060405180910390f35b3480156101f457600080fd5b5061021360048036038101908080359060200190929190505050610cee565b604051808273ffffffffffffffffffffffffffffffffffffffff1673ffffffffffffffffffffffffffffffffffffffff16815260200191505060405180910390f35b610293600480360381019080803573ffffffffffffffffffffffffffffffffffffffff16906020019092919080359060200190929190505050610d2b565b005b3480156102a157600080fd5b506102c060048036038101908080359060200190929190505050610e48565b60405180806020018060200180602001806020018060200186810386528b818151815260200191508051906020019080838360005b838110156103105780820151818401526020810190506102f5565b50505050905090810190601f16801561033d5780820380516001836020036101000a031916815260200191505b5086810385528a818151815260200191508051906020019080838360005b8381101561037657808201518184015260208101905061035b565b50505050905090810190601f1680156103a35780820380516001836020036101000a031916815260200191505b50868103845289818151815260200191508051906020019080838360005b838110156103dc5780820151818401526020810190506103c1565b50505050905090810190601f1680156104095780820380516001836020036101000a031916815260200191505b50868103835288818151815260200191508051906020019080838360005b83811015610442578082015181840152602081019050610427565b50505050905090810190601f16801561046f5780820380516001836020036101000a031916815260200191505b50868103825287818151815260200191508051906020019080838360005b838110156104a857808201518184015260208101905061048d565b50505050905090810190601f1680156104d55780820380516001836020036101000a031916815260200191505b509a505050505050505050505060405180910390f35b610549600480360381019080803573ffffffffffffffffffffffffffffffffffffffff169060200190929190803573ffffffffffffffffffffffffffffffffffffffff16906020019092919080359060200190929190505050611259565b005b6105696004803603810190808035906020019092919050505061135a565b005b34801561057757600080fd5b506105a06004803603810190808035906020019092919080359060200190929190505050611502565b005b610600600480360381019080803573ffffffffffffffffffffffffffffffffffffffff169060200190929190803573ffffffffffffffffffffffffffffffffffffffff1690602001909291908035906020019092919050505061162d565b005b34801561060e57600080fd5b50610617611632565b6040518080602001828103825283818151815260200191508051906020019060200280838360005b8381101561065a57808201518184015260208101905061063f565b505050509050019250505060405180910390f35b34801561067a57600080fd5b506106996004803603810190808035906020019092919050505061168a565b604051808273ffffffffffffffffffffffffffffffffffffffff1673ffffffffffffffffffffffffffffffffffffffff16815260200191505060405180910390f35b3480156106e757600080fd5b5061071c600480360381019080803573ffffffffffffffffffffffffffffffffffffffff1690602001909291905050506116c6565b6040518082815260200191505060405180910390f35b34801561073e57600080fd5b5061075d600480360381019080803590602001909291905050506117d9565b6040518080602001828103825283818151815260200191508051906020019080838360005b8381101561079d578082015181840152602081019050610782565b50505050905090810190601f1680156107ca5780820380516001836020036101000a031916815260200191505b509250505060405180910390f35b3480156107e457600080fd5b50610803600480360381019080803590602001909291905050506119bd565b005b34801561081157600080fd5b50610852600480360381019080803573ffffffffffffffffffffffffffffffffffffffff169060200190929190803515159060200190929190505050611bb6565b005b34801561086057600080fd5b506109dd600480360381019080803590602001908201803590602001908080601f0160208091040260200160405190810160405280939291908181526020018383808284378201915050505050509192919290803590602001908201803590602001908080601f0160208091040260200160405190810160405280939291908181526020018383808284378201915050505050509192919290803590602001908201803590602001908080601f0160208091040260200160405190810160405280939291908181526020018383808284378201915050505050509192919290803590602001908201803590602001908080601f0160208091040260200160405190810160405280939291908181526020018383808284378201915050505050509192919290803590602001908201803590602001908080601f016020809104026020016040519081016040528093929190818152602001838380828437820191505050505050919291929080359060200190929190505050611cb7565b005b610a55600480360381019080803573ffffffffffffffffffffffffffffffffffffffff169060200190929190803573ffffffffffffffffffffffffffffffffffffffff16906020019092919080359060200190929190803590602001908201803590602001919091929391929390505050611e3a565b005b348015610a6357600080fd5b50610a8260048036038101908080359060200190929190505050611e41565b6040518082815260200191505060405180910390f35b348015610aa457600080fd5b50610af9600480360381019080803573ffffffffffffffffffffffffffffffffffffffff169060200190929190803573ffffffffffffffffffffffffffffffffffffffff169060200190929190505050611e64565b604051808215151515815260200191505060405180910390f35b348015610b1f57600080fd5b50610b28611ef8565b6040518082815260200191505060405180910390f35b6060806060610b4d607b6117d9565b91506040805190810160405280600381526020017f31323300000000000000000000000000000000000000000000000000000000008152509050806040518082805190602001908083835b602083101515610bbd5780518252602082019150602081019050602083039250610b98565b6001836020036101000a038019825116818451168082178552505050505050905001915050604051809103902060001916826040518082805190602001908083835b602083101515610c245780518252602082019150602081019050602083039250610bff565b6001836020036101000a0380198251168184511680821785525050505050509050019150506040518091039020600019161415610c98576040805190810160405280600481526020017f61736466000000000000000000000000000000000000000000000000000000008152509250610cd1565b6040805190810160405280600781526020017f617332343564660000000000000000000000000000000000000000000000000081525092505b505090565b60056020528060005260406000206000915090505481565b60006002600083815260200190815260200160002060009054906101000a900473ffffffffffffffffffffffffffffffffffffffff169050919050565b3373ffffffffffffffffffffffffffffffffffffffff1660008083815260200190815260200160002060009054906101000a900473ffffffffffffffffffffffffffffffffffffffff1673ffffffffffffffffffffffffffffffffffffffff16141515610d9757600080fd5b816002600083815260200190815260200160002060006101000a81548173ffffffffffffffffffffffffffffffffffffffff021916908373ffffffffffffffffffffffffffffffffffffffff160217905550808273ffffffffffffffffffffffffffffffffffffffff163373ffffffffffffffffffffffffffffffffffffffff167f8c5be1e5ebec7d5bd14f71427d1e84f3dd0314c0f7b2291e5b200ac8c7c3b92560405160405180910390a45050565b6060806060806060610e5861247e565b6004600088815260200190815260200160002060a06040519081016040529081600082018054600181600116156101000203166002900480601f016020809104026020016040519081016040528092919081815260200182805460018160011615610100020316600290048015610f105780601f10610ee557610100808354040283529160200191610f10565b820191906000526020600020905b815481529060010190602001808311610ef357829003601f168201915b50505050508152602001600182018054600181600116156101000203166002900480601f016020809104026020016040519081016040528092919081815260200182805460018160011615610100020316600290048015610fb25780601f10610f8757610100808354040283529160200191610fb2565b820191906000526020600020905b815481529060010190602001808311610f9557829003601f168201915b50505050508152602001600282018054600181600116156101000203166002900480601f0160208091040260200160405190810160405280929190818152602001828054600181600116156101000203166002900480156110545780601f1061102957610100808354040283529160200191611054565b820191906000526020600020905b81548152906001019060200180831161103757829003601f168201915b50505050508152602001600382018054600181600116156101000203166002900480601f0160208091040260200160405190810160405280929190818152602001828054600181600116156101000203166002900480156110f65780601f106110cb576101008083540402835291602001916110f6565b820191906000526020600020905b8154815290600101906020018083116110d957829003601f168201915b50505050508152602001600482018054600181600116156101000203166002900480601f0160208091040260200160405190810160405280929190818152602001828054600181600116156101000203166002900480156111985780601f1061116d57610100808354040283529160200191611198565b820191906000526020600020905b81548152906001019060200180831161117b57829003601f168201915b5050505050815250509050600081600001516040518082805190602001908083835b6020831015156111df57805182526020820191506020810190506020830392506111ba565b6001836020036101000a0380198251168184511680821785525050505050509050019150506040518091039020600019161415151561121d57600080fd5b80600001518160200151826040015183606001518460800151849450839350829250819150809050955095509550955095505091939590929450565b338160008082815260200190815260200160002060009054906101000a900473ffffffffffffffffffffffffffffffffffffffff1673ffffffffffffffffffffffffffffffffffffffff168273ffffffffffffffffffffffffffffffffffffffff1614806112fa57508173ffffffffffffffffffffffffffffffffffffffff166112e282610cee565b73ffffffffffffffffffffffffffffffffffffffff16145b8061133d575061133c60008083815260200190815260200160002060009054906101000a900473ffffffffffffffffffffffffffffffffffffffff1683611e64565b5b151561134857600080fd5b611353858585611efe565b5050505050565b6000806000600560008581526020019081526020016000205411151561137f57600080fd5b600560008481526020019081526020016000205491503073ffffffffffffffffffffffffffffffffffffffff16636352211e846040518263ffffffff167c010000000000000000000000000000000000000000000000000000000002815260040180828152602001915050602060405180830381600087803b15801561140457600080fd5b505af1158015611418573d6000803e3d6000fd5b505050506040513d602081101561142e57600080fd5b8101908080519060200190929190505050905081341015151561145057600080fd5b61145983611ffc565b611464813385611efe565b813411156114b6573373ffffffffffffffffffffffffffffffffffffffff166108fc8334039081150290604051600060405180830381858888f193505050501580156114b4573d6000803e3d6000fd5b505b8073ffffffffffffffffffffffffffffffffffffffff166108fc839081150290604051600060405180830381858888f193505050501580156114fc573d6000803e3d6000fd5b50505050565b3373ffffffffffffffffffffffffffffffffffffffff163073ffffffffffffffffffffffffffffffffffffffff16636352211e846040518263ffffffff167c010000000000000000000000000000000000000000000000000000000002815260040180828152602001915050602060405180830381600087803b15801561158857600080fd5b505af115801561159c573d6000803e3d6000fd5b505050506040513d60208110156115b257600080fd5b810190808051906020019092919050505073ffffffffffffffffffffffffffffffffffffffff161415156115e557600080fd5b80600560008481526020019081526020016000208190555060088290806001815401808255809150509060018203906000526020600020016000909192909190915055505050565b505050565b6060600880548060200260200160405190810160405280929190818152602001828054801561168057602002820191906000526020600020905b81548152602001906001019080831161166c575b5050505050905090565b600080600083815260200190815260200160002060009054906101000a900473ffffffffffffffffffffffffffffffffffffffff169050919050565b60008073ffffffffffffffffffffffffffffffffffffffff168273ffffffffffffffffffffffffffffffffffffffff1614151515611792576040517f08c379a00000000000000000000000000000000000000000000000000000000081526004018080602001828103825260228152602001807f63616e6e6f742061736b206f662062616c616e6365206f66206164647265737381526020017f203000000000000000000000000000000000000000000000000000000000000081525060400191505060405180910390fd5b600160008373ffffffffffffffffffffffffffffffffffffffff1673ffffffffffffffffffffffffffffffffffffffff168152602001908152602001600020549050919050565b60606000606060008060606000606060649650866040519080825280601f01601f19166020018201604052801561181f5781602001602082028038833980820191505090505b509550600094505b6000891415156118be57600a8981151561183d57fe5b069350600a8981151561184c57fe5b049850836030017f010000000000000000000000000000000000000000000000000000000000000002868680600101975081518110151561188957fe5b9060200101907effffffffffffffffffffffffffffffffffffffffffffffffffffffffffffff1916908160001a905350611827565b600185016040519080825280601f01601f1916602001820160405280156118f45781602001602082028038833980820191505090505b509250600091505b84821115156119ab578582860381518110151561191557fe5b9060200101517f010000000000000000000000000000000000000000000000000000000000000090047f010000000000000000000000000000000000000000000000000000000000000002838381518110151561196e57fe5b9060200101907effffffffffffffffffffffffffffffffffffffffffffffffffffffffffffff1916908160001a90535081806001019250506118fc565b82905080975050505050505050919050565b600073ffffffffffffffffffffffffffffffffffffffff1660008083815260200190815260200160002060009054906101000a900473ffffffffffffffffffffffffffffffffffffffff1673ffffffffffffffffffffffffffffffffffffffff16141515611ab9576040517f08c379a000000000000000000000000000000000000000000000000000000000815260040180806020018281038252602a8152602001807f7468697320746f6b656e2062656c6f6e677320746f20736f6d656f6e6520656c81526020017f736520616c72656164790000000000000000000000000000000000000000000081525060400191505060405180910390fd5b3360008083815260200190815260200160002060006101000a81548173ffffffffffffffffffffffffffffffffffffffff021916908373ffffffffffffffffffffffffffffffffffffffff16021790555060018060003373ffffffffffffffffffffffffffffffffffffffff1673ffffffffffffffffffffffffffffffffffffffff16815260200190815260200160002060008282540192505081905550803373ffffffffffffffffffffffffffffffffffffffff16600073ffffffffffffffffffffffffffffffffffffffff167fddf252ad1be2c89b69c2b068fc378daa952ba7f163c4a11628f55a4df523b3ef60405160405180910390a450565b80600360003373ffffffffffffffffffffffffffffffffffffffff1673ffffffffffffffffffffffffffffffffffffffff16815260200190815260200160002060008473ffffffffffffffffffffffffffffffffffffffff1673ffffffffffffffffffffffffffffffffffffffff16815260200190815260200160002060006101000a81548160ff0219169083151502179055508173ffffffffffffffffffffffffffffffffffffffff163373ffffffffffffffffffffffffffffffffffffffff167f17307eab39ab6107e8899845ad3d59bd9653f200f220920489ca2b5937696c3183604051808215151515815260200191505060405180910390a35050565b611cbf61247e565b600060a060405190810160405280898152602001888152602001878152602001868152602001858152509150611cf68686866120cf565b905060001515811515141515611d74576040517f08c379a00000000000000000000000000000000000000000000000000000000081526004018080602001828103825260138152602001807f5374617220616c7265616479206578697374730000000000000000000000000081525060200191505060405180910390fd5b611d7f868686612163565b81600460008581526020019081526020016000206000820151816000019080519060200190611daf9291906124ae565b506020820151816001019080519060200190611dcc9291906124ae565b506040820151816002019080519060200190611de99291906124ae565b506060820151816003019080519060200190611e069291906124ae565b506080820151816004019080519060200190611e239291906124ae565b50905050611e30836119bd565b5050505050505050565b5050505050565b600881815481101515611e5057fe5b906000526020600020016000915090505481565b6000600360008473ffffffffffffffffffffffffffffffffffffffff1673ffffffffffffffffffffffffffffffffffffffff16815260200190815260200160002060008373ffffffffffffffffffffffffffffffffffffffff1673ffffffffffffffffffffffffffffffffffffffff16815260200190815260200160002060009054906101000a900460ff16905092915050565b60075481565b8160008083815260200190815260200160002060006101000a81548173ffffffffffffffffffffffffffffffffffffffff021916908373ffffffffffffffffffffffffffffffffffffffff16021790555060018060008573ffffffffffffffffffffffffffffffffffffffff1673ffffffffffffffffffffffffffffffffffffffff16815260200190815260200160002060008282540392505081905550808273ffffffffffffffffffffffffffffffffffffffff168473ffffffffffffffffffffffffffffffffffffffff167fddf252ad1be2c89b69c2b068fc378daa952ba7f163c4a11628f55a4df523b3ef60405160405180910390a4505050565b6000806002600084815260200190815260200160002060006101000a81548173ffffffffffffffffffffffffffffffffffffffff021916908373ffffffffffffffffffffffffffffffffffffffff16021790555060006005600084815260200190815260200160002081905550600090505b6008805490508110156120cb578160088281548110151561208b57fe5b906000526020600020015414156120be576008818154811015156120ab57fe5b90600052602060002001600090556120cb565b808060010191505061206e565b5050565b600060606120de8585856121fc565b90506006816040518082805190602001908083835b60208310151561211857805182526020820191506020810190506020830392506120f3565b6001836020036101000a038019825116818451168082178552505050505050905001915050908152602001604051809103902060009054906101000a900460ff169150509392505050565b60606121708484846121fc565b905060016006826040518082805190602001908083835b6020831015156121ac5780518252602082019150602081019050602083039250612187565b6001836020036101000a038019825116818451168082178552505050505050905001915050908152602001604051809103902060006101000a81548160ff02191690831515021790555050505050565b606080606060008085518751895101016040519080825280601f01601f19166020018201604052801561223e5781602001602082028038833980820191505090505b50935083925060009150600090505b875181101561230057878181518110151561226457fe5b9060200101517f010000000000000000000000000000000000000000000000000000000000000090047f01000000000000000000000000000000000000000000000000000000000000000283838060010194508151811015156122c357fe5b9060200101907effffffffffffffffffffffffffffffffffffffffffffffffffffffffffffff1916908160001a905350808060010191505061224d565b600090505b86518110156123b857868181518110151561231c57fe5b9060200101517f010000000000000000000000000000000000000000000000000000000000000090047f010000000000000000000000000000000000000000000000000000000000000002838380600101945081518110151561237b57fe5b9060200101907effffffffffffffffffffffffffffffffffffffffffffffffffffffffffffff1916908160001a9053508080600101915050612305565b600090505b85518110156124705785818151811015156123d457fe5b9060200101517f010000000000000000000000000000000000000000000000000000000000000090047f010000000000000000000000000000000000000000000000000000000000000002838380600101945081518110151561243357fe5b9060200101907effffffffffffffffffffffffffffffffffffffffffffffffffffffffffffff1916908160001a90535080806001019150506123bd565b829450505050509392505050565b60a06040519081016040528060608152602001606081526020016060815260200160608152602001606081525090565b828054600181600116156101000203166002900490600052602060002090601f016020900481019282601f106124ef57805160ff191683800117855561251d565b8280016001018555821561251d579182015b8281111561251c578251825591602001919060010190612501565b5b50905061252a919061252e565b5090565b61255091905b8082111561254c576000816000905550600101612534565b5090565b905600a165627a7a723058205de87e4edd893c3479fc85b8f9d1d01e185772f1f2d39cbc635d87dfd0a71f9f0029",
  "source": "pragma solidity ^0.4.23;\n\nimport './ERC721Token.sol';\n\ncontract StarNotary is ERC721Token { \n\n    // struct Star { \n    //     string name;\n    // }\n\n    event LogCoinsSent(uint amount1, uint amount);\n    \n    struct Star {\n        string name;\n        string starStory;\n        string ra;\n        string dec;\n        string mag;\n    }\n\n    mapping(uint256 => Star) public tokenIdToStarInfo;\n\n    mapping(uint256 => uint256) public starsForSale;\n\n    mapping(string => bool) private registeredCoordinates;\n\n    uint256 public totalStarsForSale;\n\n    uint256[] public currentStarsForSale;\n\n    //struct[10] currentStarsForSale;\n\n    function createStar(string _name, string _starStory, string _ra, string _dec, string _mag, uint256 _tokenId) public { \n        //Star memory newStar = Star(_name);\n        Star memory newStar = Star(_name, _starStory, _ra, _dec, _mag);\n\n        bool starDoesNotExist = checkIfStarExists(_ra, _dec, _mag);\n        require(starDoesNotExist == false, \"Star already exists\");       \n\n        registerStarCoordinates(_ra, _dec, _mag);\n\n        tokenIdToStarInfo[_tokenId] = newStar;\n\n        ERC721Token.mint(_tokenId);\n    }\n\n    function putStarUpForSale(uint256 _tokenId, uint256 _price) public { \n        require(this.ownerOf(_tokenId) == msg.sender);\n\n        starsForSale[_tokenId] = _price;\n\n        //added\n        currentStarsForSale.push(_tokenId);\n    }\n\n    function buyStar(uint256 _tokenId) public payable { \n        require(starsForSale[_tokenId] > 0);\n\n        uint256 starCost = starsForSale[_tokenId];\n        address starOwner = this.ownerOf(_tokenId);\n\n        require(msg.value >= starCost);\n\n        clearPreviousStarState(_tokenId);\n\n        transferFromHelper(starOwner, msg.sender, _tokenId);\n\n        if (msg.value > starCost) { \n            msg.sender.transfer(msg.value - starCost);\n        }\n\n        starOwner.transfer(starCost);\n    }\n\n    function clearPreviousStarState(uint256 _tokenId) private {\n        //clear approvals \n        tokenToApproved[_tokenId] = address(0);\n\n        //clear being on sale \n        starsForSale[_tokenId] = 0;\n\n        //clear record of available stars\n        for (uint i = 0; i < currentStarsForSale.length; i++) {\n            if (currentStarsForSale[i] == _tokenId) {\n                delete currentStarsForSale[i];\n                break;\n            }\n        }      \n    }\n\n    function checkIfStarExists(string _ra, string _dec, string _mag) private view returns (bool) {       \n        string memory concatenatedString = concatenateStarCoordinates(_ra, _dec, _mag);\n        return registeredCoordinates[string(concatenatedString)];\n    }\n\n    function registerStarCoordinates(string _ra, string _dec, string _mag) private { \n        string memory concatenatedString = concatenateStarCoordinates(_ra, _dec, _mag);\n        registeredCoordinates[string(concatenatedString)] = true;\n    }\n\n    function allStarsForSale() public view returns (uint256[]) {  //change this name\n        return currentStarsForSale;\n \n        // uint256[] memory memoryArray; \n        // memoryArray = new uint256[](totalStarsForSale);\n        // memoryArray[0] = 23;\n        // return memoryArray;\n\n\n        //return returnArr;\n        //return totalStarsForSale;\n    }\n\n    function testFunc() public view returns (string) {  //change this \n\n        string memory a = testFunc1(123);\n        string memory b = \"123\";\n        if (keccak256(a) == keccak256(b)) \n        {\n            return \"asdf\";\n        }\n        return \"as245df\";\n        // uint test = 9;\n        //string memory butt = string(bytes(test));\n\n        //  bytes b = new bytes(32);\n        //  assembly { mstore(add(b, 32), x) }\n        // bytes memory testStr = testFunc1(55);\n        // return string(testStr);\n \n        // uint256[] memory memoryArray; \n        // memoryArray = new uint256[](totalStarsForSale);\n        // memoryArray[0] = 23;\n        // return memoryArray;\n\n\n        //return returnArr;\n        //return totalStarsForSale;\n    }\n\n    function testFunc1(uint v) public view returns (string) {  //change this name\n        uint maxlength = 100;\n        bytes memory reversed = new bytes(maxlength);\n        uint i = 0;\n        while (v != 0) {\n            uint remainder = v % 10;\n            v = v / 10;\n            reversed[i++] = byte(48 + remainder);\n        }\n        bytes memory s = new bytes(i + 1);\n        for (uint j = 0; j <= i; j++) {\n            s[j] = reversed[i - j];\n        }\n        string memory str = string(s);\n        return str;\n\n        // string memory strLength = new string(bytes(currentStarsForSale));\n        // bytes memory returnString = bytes(strLength);\n        // uint k = 0;\n        // for (uint i = 0; i < bytes(_ra).length; i++) {returnString[k++] = bytes(_ra)[i];}\n        // for (i = 0; i < bytes(_dec).length; i++) {returnString[k++] = bytes(_dec)[i];}\n        // for (i = 0; i < bytes(_mag).length; i++) {returnString[k++] = bytes(_mag)[i];}\n        \n        // return string(returnString);\n \n        // uint256[] memory memoryArray; \n        // memoryArray = new uint256[](totalStarsForSale);\n        // memoryArray[0] = 23;\n        // return memoryArray;\n\n\n        //return returnArr;\n        //return totalStarsForSale;\n    }\n\n    function concatenateStarCoordinates(string _ra, string _dec, string _mag) private view returns (string) {  \n        string memory strLength = new string(bytes(_ra).length + bytes(_dec).length + bytes(_mag).length);\n        bytes memory returnString = bytes(strLength);\n        uint k = 0;\n        for (uint i = 0; i < bytes(_ra).length; i++) {returnString[k++] = bytes(_ra)[i];}\n        for (i = 0; i < bytes(_dec).length; i++) {returnString[k++] = bytes(_dec)[i];}\n        for (i = 0; i < bytes(_mag).length; i++) {returnString[k++] = bytes(_mag)[i];}\n        \n        return string(returnString);\n    }\n    \n    function tokenIdToStarInfo(uint256 _tokenId) public view returns (string, string, string, string, string) {\n        Star memory returnStar = tokenIdToStarInfo[_tokenId];\n        //check for star name to see if struct exists\n        require(keccak256(bytes(returnStar.name)) != \"\");        \n        return (returnStar.name,returnStar.starStory,returnStar.ra,returnStar.dec,returnStar.mag);\n    }\n}",
  "sourcePath": "/Users/JoeyBerger/Desktop/Udacity/Blockchain Nanodegree/GitHub Repos/Decentralized-Star-Notary/smart_contracts/contracts/StarNotary.sol",
  "compiler": {
    "name": "solc",
    "version": "0.4.24+commit.e67f0147.Emscripten.clang"
  },
  "schemaVersion": "2.0.1",
  "updatedAt": "2018-12-27T01:39:40.531Z"
}